:100000000C9462000C948A000C948A000C948A0070
:100010000C948A000C948A000C948A000C948A0038
:100020000C948A000C948A000C948A000C948A0028
:100030000C948A000C948A000C948A000C948A0018
:100040000C94F3000C948A000C944B040C948E04D2
:100050000C948A000C948A000C948A000C948A00F8
:100060000C948A000C948A00000000070002010032
:100070000003040600000000000000000102040864
:100080001020408001020408102001020408102002
:10009000040404040404040402020202020203032E
:1000A00003030303000000002300260029000000D2
:1000B0000000250028002B0000000000240027007D
:1000C0002A00510511241FBECFEFD8E0DEBFCDBFFF
:1000D00011E0A0E0B1E0E2E7FBE002C005900D9284
:1000E000A635B107D9F722E0A6E5B1E001C01D921F
:1000F000A930B207E1F710E0C2E6D0E004C02197D2
:10010000FE010E94B105C136D107C9F70E94A403C0
:100110000C948C050C94000040E855E260E070E01F
:100120008FE591E00E94C90461E08DE00E94EC013E
:1001300060E082E00C94EC01CF93DF938FE591E0D7
:100140000E94B103892BD1F38FE591E00E94B103A6
:1001500018161906DCF48FE591E00E94DD03C82F24
:10016000811107C061E08DE00E94280260E071E02B
:1001700008C0813061F460E08DE00E94280260E1F7
:1001800071E08FE591E00E94DB0210C0C0E26FE1F8
:1001900071E08FE591E00E94BE026C2FCC0F770BCF
:1001A0004AE050E08FE591E00E948D0382E00E94DA
:1001B0005802EC0169E371E08FE591E00E94BE0214
:1001C0004AE050E0BE018FE591E00E948D038FE58B
:1001D00091E00E94FD0364E670E080E090E0DF9132
:1001E000CF910C9462011F920F920FB60F921124BF
:1001F0002F933F938F939F93AF93BF93809157011A
:1002000090915801A0915901B0915A013091560135
:1002100023E0230F2D3720F40196A11DB11D05C049
:1002200026E8230F0296A11DB11D2093560180934D
:10023000570190935801A0935901B0935A018091AE
:100240005B0190915C01A0915D01B0915E0101960E
:10025000A11DB11D80935B0190935C01A0935D0192
:10026000B0935E01BF91AF919F918F913F912F917C
:100270000F900FBE0F901F9018953FB7F894809184
:100280005B0190915C01A0915D01B0915E0126B58A
:10029000A89B05C02F3F19F00196A11DB11D3FBFBE
:1002A000BA2FA92F982F8827820F911DA11DB11D4C
:1002B000BC01CD0142E0660F771F881F991F4A9548
:1002C000D1F70895CF92DF92EF92FF92CF93DF9311
:1002D0006B017C010E943D01EB01C114D104E104DA
:1002E000F10479F00E943D016C1B7D0B683E734068
:1002F000A0F381E0C81AD108E108F108C851DC4F29
:10030000ECCFDF91CF91FF90EF90DF90CF900895E9
:10031000789484B5826084BD84B5816084BD85B5E0
:10032000826085BD85B5816085BDEEE6F0E08081A7
:1003300081608083E1E8F0E01082808182608083C8
:10034000808181608083E0E8F0E08081816080834B
:10035000E1EBF0E0808184608083E0EBF0E080817D
:1003600081608083EAE7F0E080818460808380811F
:1003700082608083808181608083808180688083C7
:100380001092C1000895833081F028F4813099F0F3
:100390008230A1F008958630A9F08730B9F084301A
:1003A000D1F4809180008F7D03C0809180008F7791
:1003B00080938000089584B58F7702C084B58F7DC7
:1003C00084BD08958091B0008F7703C08091B00004
:1003D0008F7D8093B0000895CF93DF9390E0FC0170
:1003E000E458FF4F2491FC01E057FF4F849188238C
:1003F00061F190E0880F991FFC01E854FF4FC5910F
:10040000D491FC01E255FF4FA591B491611109C04F
:100410009FB7F8948881209582238883EC912E23BE
:100420000BC0623061F49FB7F8943881822F8095B9
:1004300083238883EC912E2B2C939FBF06C08FB70C
:10044000F894E8812E2B28838FBFDF91CF910895F8
:100450001F93CF93DF93282F30E0F901E859FF4F26
:100460008491F901E458FF4FD491F901E057FF4F0F
:10047000C491CC23C9F0162F81110E94C301EC2F27
:10048000F0E0EE0FFF1FE255FF4FA591B4918FB73B
:10049000F894111105C09C91ED2FE095E92302C05D
:1004A000EC91ED2BEC938FBFDF91CF911F910895CD
:1004B000CF93DF93282F30E0F901E859FF4F849163
:1004C000F901E458FF4FD491F901E057FF4FC4916F
:1004D000CC2391F081110E94C301EC2FF0E0EE0FCC
:1004E000FF1FEC55FF4FA591B491EC91ED2381E0F6
:1004F00090E021F480E002C080E090E0DF91CF91B5
:100500000895CF92DF92EF92FF920F931F93CF93B4
:10051000DF936C01EB017B01E40EF51E00E010E0BF
:10052000CE15DF0561F06991D601ED91FC91019046
:10053000F081E02DC6010995080F191FF1CFC80100
:10054000DF91CF911F910F91FF90EF90DF90CF90AF
:1005500008956115710579F0FB0101900020E9F71C
:100560003197AF01461B570BDC01ED91FC910280E6
:10057000F381E02D099480E090E008950C94A902A5
:10058000DC01ED91FC910190F081E02D09940F9335
:100590001F93CF93DF93EC016DE00E94C0028C01AA
:1005A0006AE0CE010E94C002800F911FDF91CF91BF
:1005B0001F910F9108950F931F93CF93DF93EC0139
:1005C0000E94A9028C01CE010E94C702800F911FD8
:1005D000DF91CF911F910F9108958F929F92AF92CB
:1005E000BF92CF92DF92EF92FF920F931F93CF9320
:1005F000DF93CDB7DEB7A1970FB6F894DEBF0FBE7D
:10060000CDBF6C01142FE52FCB01022F19A2223090
:1006100008F40AE07E0121E2E20EF11C802E912C0A
:10062000A12CB12C612F7E2FA50194010E948F0572
:10063000029F1019112481E0E81AF1081A3014F40D
:10064000105D01C0195CF7011083122FE32FCA015E
:10065000232B242B252B31F7B701C6010E94A902B9
:10066000A1960FB6F894DEBF0FBECDBFDF91CF913C
:100670001F910F91FF90EF90DF90CF90BF90AF90C0
:100680009F908F900895CF92DF92EF92FF920F93F9
:100690001F93CF93DF93EC016A017B012115310594
:1006A00079F4E881F9810190F081E02D642FDF91E8
:1006B000CF911F910F91FF90EF90DF90CF90099411
:1006C0002A303105E9F477FF1AC06DE20E94C002BA
:1006D0008C0144275527BA014C195D096E097F0921
:1006E0002AE0CE010E94ED02800F911FDF91CF9191
:1006F0001F910F91FF90EF90DF90CF9008952AE027
:10070000B701A601CE01DF91CF911F910F91FF900C
:10071000EF90DF90CF900C94ED020F931F93CF9347
:10072000DF93EC019A01AB01770F660B770B0E9408
:1007300043038C01CE010E94C702800F911FDF91FD
:10074000CF911F910F9108950E9488010E948C0003
:10075000C5E8D4E00E949C002097E1F30E94850444
:10076000F9CFFC0124853585F901E05CFF4F8081DC
:100770009181329620813181821B930B8F7399274F
:100780000895DC011C96ED91FC911D97DF01A05CA2
:10079000BF4F2D913C91119712968D919C9111977D
:1007A0002817390739F08D919C91E80FF91F808146
:1007B00090E008958FEF9FEF0895FC01A485B58523
:1007C000FD01E05CFF4F2081318132968081918173
:1007D0002817390779F080819181A80FB91F8C9172
:1007E000208131812F5F3F4F2F7333273183208347
:1007F00090E008958FEF9FEF0895FC0181A1882379
:1008000029F0A489B5898C9186FFFBCF11A20895A8
:100810000F931F93CF93DF93FC01A685B7858D01BE
:10082000005C1F4FE8018881998101968F73992799
:10083000AD014E5B5F4FEA01288139818217930732
:10084000D1F3E80128813981A20FB31F6C93A685EB
:10085000B785A05CBF4F11969C938E93A689B789EC
:100860002C9181E090E0078C02C0880F991F0A94B8
:10087000E2F7822B8C9381E081A30488F589E02D37
:1008800080818064808381E090E0DF91CF911F912F
:100890000F91089508951F920F920FB60F92112491
:1008A0002F934F935F938F939F93EF93FF93809139
:1008B000C00082FD1CC02091C6008091050290916D
:1008C000060201968F739927409107025091080202
:1008D0008417950771F0E0910502F0910602EB5341
:1008E000FE4F2083909306028093050202C0809100
:1008F000C600FF91EF919F918F915F914F912F9142
:100900000F900FBE0F901F9018958FE591E00E94F9
:10091000B103892B11F00C944A0408951F920F9291
:100920000FB60F9211242F933F938F939F93EF93C2
:10093000FF932091C1013091C2018091C301909138
:10094000C4012817390731F48091C1008F7D80934D
:10095000C10014C0E091C301F091C401EF57FE4FF4
:1009600020818091C3019091C40101968F739927D2
:100970009093C4018093C3012093C600FF91EF912F
:100980009F918F913F912F910F900FBE0F901F90CD
:100990001895CF92DF92EF92FF920F931F93CF9310
:1009A000DF93EC016A017B014115514E6105710530
:1009B00009F1EC89FD8981E090E008A002C0880F70
:1009C000991F0A94E2F7808360E079E08DE390E07C
:1009D000A70196010E948F0589019A010150110912
:1009E0002109310936952795179507959801011525
:1009F0001041A8F0EC89FD89108260E874E88EE16E
:100A000090E0A70196010E948F05DA01C9010197C4
:100A1000A109B109B695A795979587959C01E88995
:100A2000F9893083EA89FB89208319A2EE89FF893D
:100A3000408181E090E09C010C8C02C0220F331FAA
:100A40000A94E2F7242B2083EE89FF8940819C01E0
:100A50000D8C02C0220F331F0A94E2F7242B20834F
:100A6000EE89FF8940819C010E8C02C0220F331F4A
:100A70000A94E2F7242B2083EE89FF8920810F8CD2
:100A800002C0880F991F0A94E2F780958223808321
:100A9000DF91CF911F910F91FF90EF90DF90CF905A
:100AA0000895EFE5F1E01382128288EE93E0A0E072
:100AB000B0E084839583A683B7838AE491E0918331
:100AC000808385EC91E09587848781E891E0978722
:100AD000868785EC90E0918B808B84EC90E0938B03
:100AE000828B80EC90E0958B848B81EC90E0978BEF
:100AF000868B82EC90E0918F808F86EC90E0938FD4
:100B0000828F84E0848F83E0858F87E0868F85E005
:100B1000878F81E080A30895F8940C94B705A1E233
:100B20001A2EAA1BBB1BFD010DC0AA1FBB1FEE1F67
:100B3000FF1FA217B307E407F50720F0A21BB30BB2
:100B4000E40BF50B661F771F881F991F1A9469F72E
:100B500060957095809590959B01AC01BD01CF018A
:100B60000895EE0FFF1F0590F491E02D0994F8947D
:020B7000FFCFB5
:100B72004C45442073657420746F2068696768006F
:100B82004C45442073657420746F206C6F7700436A
:100B92006F756C64206E6F742070726F636573730F
:100BA20020696E7075743A20005265616420766126
:100BB2006C75653A20000000000008048102B10350
:060BC200DD03C103FD0389
:00000001FF
